:100000000080001001040000170800002B08000009
:100010001708000017080000170800000000000083
:1000200000000000000000000000000017080000B1
:100030001708000000000000170800001708000063
:100040001708000017080000170800001708000034
:100050001708000017080000170800001708000024
:100060001708000017080000170800001708000014
:100070001708000017080000170800001708000004
:1004000000F00AFA084809490022814201D004C0DC
:10041000FBE707480749084A814202D008CA08C0DA
:10042000FAE700F00BF800DE0000001004000010F6
:1004300000000010000000102C08000080B56F467E
:1004400000F000F880B56F4600F0ECF9044600F0CB
:10045000E5F940F20005C1F200056E78002E04BFF8
:1004600001206870E00708BF00F0DAF9002E40F0C4
:10047000C48100F0D7F9044600F0D0F92E78002EA0
:1004800004BF01202870E00708BF00F0C9F9002E62
:1004900040F0B3814CF28802C4F20F02D2F8180186
:1004A00040F02000C2F81801D2F8180140060CD420
:1004B000D2F8180140065CBFD2F818015FEA40602C
:1004C00003D4D2F818014006EED501200323C2F868
:1004D0008400D16F63F30701D16752F8041C48F21E
:1004E0000003CFF600731940552341F4A02141F0D9
:1004F000630142F8041CAA215160536042F8080CC1
:10050000516053601068C00109D41068C0015CBF1D
:1005100010685FEAC01002D41068C001F2D5032051
:1005200042F8080CAA205060552050601068C001A5
:1005300044BF10685FEA801014D41068C00144BF43
:1005400010685FEA80100DD41068C00144BF1068C5
:100550005FEA801006D41068C00144BF10685FEAEB
:100560008010E3D54CF260000221C2F2090005259B
:10057000C0F803104EF21001CEF200014FF0000E51
:100580000B686C244FF06F0A4FF0640B43F00403C8
:100590000B6044F240234FF00A09C0F20F034FF002
:1005A0000D0C4B600B6843F001030B60D2F8203157
:1005B00023F0C003C2F820314CF20003C4F202035E
:1005C0001E6865F307161E60D36B43F00803D36300
:1005D0004CF214028023C4F2000242F8083CA32328
:1005E00042F8143C102342F810EC5361032342F804
:1005F000083C072342F80C3C4FF00073036003E013
:1006000042F814CC4FF0000E83614FF0000804E074
:1006100008F10108B8F1320F0DD00E68F603F7D4D7
:100620000E68F6035CBF0E685FEAC636F0D40E684B
:10063000F603F2D5ECE7C361002602E00136322E64
:100640000DD00D68ED03F9D40D68ED035CBF0D68A6
:100650005FEAC535F2D40D68ED03F2D5EEE70EF191
:10066000010EBEF10A0FCFD11668B60609D416687E
:10067000B6065CBF16685FEA866602D41668B606E0
:10068000F2D5682642F8146C1668B60609D41668C6
:10069000B6065CBF16685FEA866602D41668B606C0
:1006A000F2D5652642F8146C1668B60609D41668A9
:1006B000B6065CBF16685FEA866602D41668B606A0
:1006C000F2D542F8144C1668B60609D41668B60678
:1006D0005CBF16685FEA866602D41668B606F2D575
:1006E00042F8144C1668B60609D41668B6065CBF04
:1006F00016685FEA866602D41668B606F2D542F836
:1007000014AC1668B60609D41668B6065CBF16683F
:100710005FEA866602D41668B606F2D5202642F84D
:10072000146C1668B60609D41668B6065CBF16685F
:100730005FEA866602D41668B606F2D5772642F8D6
:10074000146C1668B60609D41668B6065CBF16683F
:100750005FEA866602D41668B606F2D542F814AC93
:100760001668B60609D41668B6065CBF16685FEA56
:10077000866602D41668B606F2D5722642F8146C64
:100780001668B60609D41668B6065CBF16685FEA36
:10079000866602D41668B606F2D542F8144C16687E
:1007A000B60609D41668B6065CBF16685FEA8666A8
:1007B00002D41668B606F2D542F814BC1668B6061E
:1007C00009D41668B6065CBF16685FEA866602D46E
:1007D0001668B606F2D542F8149C1668B6063FF5C0
:1007E0000FAF1668B6065CBF16685FEA86663FF50F
:1007F00007AF1668B606F0D502E700F008F880B536
:100800006F4600F00AF880B56F46FFF7F8FF80B535
:100810006F46FFF7F8FFFEE77047FEE772B67047D6
:0C08200062B67047EFF310807047FEE7EF
:0400000300000401F4
:00000001FF
